{
  "_format": "hh-sol-artifact-1",
  "contractName": "DETHRoll",
  "sourceName": "contracts/dETH.sol",
  "abi": [
    {
      "inputs": [
        {
          "internalType": "address",
          "name": "_airnodeRrp",
          "type": "address"
        }
      ],
      "stateMutability": "nonpayable",
      "type": "constructor"
    },
    {
      "anonymous": false,
      "inputs": [
        {
          "indexed": false,
          "internalType": "uint256",
          "name": "amount",
          "type": "uint256"
        },
        {
          "indexed": false,
          "internalType": "address",
          "name": "player1",
          "type": "address"
        }
      ],
      "name": "GameCreated",
      "type": "event"
    },
    {
      "anonymous": false,
      "inputs": [
        {
          "indexed": false,
          "internalType": "string",
          "name": "gameId",
          "type": "string"
        },
        {
          "indexed": false,
          "internalType": "uint256",
          "name": "amount",
          "type": "uint256"
        },
        {
          "indexed": false,
          "internalType": "address",
          "name": "player2",
          "type": "address"
        },
        {
          "indexed": false,
          "internalType": "address",
          "name": "player1",
          "type": "address"
        }
      ],
      "name": "GameJoin",
      "type": "event"
    },
    {
      "anonymous": false,
      "inputs": [
        {
          "indexed": false,
          "internalType": "string",
          "name": "gameId",
          "type": "string"
        },
        {
          "indexed": false,
          "internalType": "address",
          "name": "winner",
          "type": "address"
        },
        {
          "indexed": false,
          "internalType": "address",
          "name": "loser",
          "type": "address"
        },
        {
          "indexed": false,
          "internalType": "uint256",
          "name": "wonAmount",
          "type": "uint256"
        }
      ],
      "name": "GameWon",
      "type": "event"
    },
    {
      "anonymous": false,
      "inputs": [
        {
          "indexed": true,
          "internalType": "address",
          "name": "previousOwner",
          "type": "address"
        },
        {
          "indexed": true,
          "internalType": "address",
          "name": "newOwner",
          "type": "address"
        }
      ],
      "name": "OwnershipTransferred",
      "type": "event"
    },
    {
      "anonymous": false,
      "inputs": [
        {
          "indexed": false,
          "internalType": "string",
          "name": "gameId",
          "type": "string"
        },
        {
          "indexed": false,
          "internalType": "address",
          "name": "player",
          "type": "address"
        },
        {
          "indexed": false,
          "internalType": "uint256",
          "name": "rolledNumber",
          "type": "uint256"
        }
      ],
      "name": "Roll",
      "type": "event"
    },
    {
      "inputs": [],
      "name": "_qrngUint256",
      "outputs": [
        {
          "internalType": "uint256",
          "name": "",
          "type": "uint256"
        }
      ],
      "stateMutability": "view",
      "type": "function"
    },
    {
      "inputs": [],
      "name": "airnode",
      "outputs": [
        {
          "internalType": "address",
          "name": "",
          "type": "address"
        }
      ],
      "stateMutability": "view",
      "type": "function"
    },
    {
      "inputs": [],
      "name": "airnodeRrp",
      "outputs": [
        {
          "internalType": "contract IAirnodeRrpV0",
          "name": "",
          "type": "address"
        }
      ],
      "stateMutability": "view",
      "type": "function"
    },
    {
      "inputs": [
        {
          "internalType": "address",
          "name": "token",
          "type": "address"
        },
        {
          "internalType": "uint256",
          "name": "amount",
          "type": "uint256"
        }
      ],
      "name": "depositErc20",
      "outputs": [],
      "stateMutability": "payable",
      "type": "function"
    },
    {
      "inputs": [],
      "name": "endpointIdUint256",
      "outputs": [
        {
          "internalType": "bytes32",
          "name": "",
          "type": "bytes32"
        }
      ],
      "stateMutability": "view",
      "type": "function"
    },
    {
      "inputs": [
        {
          "internalType": "bytes32",
          "name": "",
          "type": "bytes32"
        }
      ],
      "name": "expectingRequestWithIdToBeFulfilled",
      "outputs": [
        {
          "internalType": "bool",
          "name": "",
          "type": "bool"
        }
      ],
      "stateMutability": "view",
      "type": "function"
    },
    {
      "inputs": [
        {
          "internalType": "bytes32",
          "name": "requestId",
          "type": "bytes32"
        },
        {
          "internalType": "bytes",
          "name": "data",
          "type": "bytes"
        }
      ],
      "name": "fulfillUint256",
      "outputs": [],
      "stateMutability": "nonpayable",
      "type": "function"
    },
    {
      "inputs": [
        {
          "internalType": "address",
          "name": "player",
          "type": "address"
        }
      ],
      "name": "getMinePendingGame",
      "outputs": [
        {
          "components": [
            {
              "internalType": "address",
              "name": "player1",
              "type": "address"
            },
            {
              "internalType": "address",
              "name": "player2",
              "type": "address"
            },
            {
              "internalType": "uint256",
              "name": "startTimestamp",
              "type": "uint256"
            },
            {
              "internalType": "uint256",
              "name": "lastRandomNumber",
              "type": "uint256"
            },
            {
              "internalType": "uint256",
              "name": "betAmount",
              "type": "uint256"
            },
            {
              "internalType": "bool",
              "name": "lastPlayer1",
              "type": "bool"
            },
            {
              "internalType": "uint256",
              "name": "rollsCount",
              "type": "uint256"
            },
            {
              "internalType": "address",
              "name": "winner",
              "type": "address"
            }
          ],
          "internalType": "struct DETHRoll.Game",
          "name": "",
          "type": "tuple"
        }
      ],
      "stateMutability": "view",
      "type": "function"
    },
    {
      "inputs": [
        {
          "internalType": "uint256",
          "name": "_betAmount",
          "type": "uint256"
        },
        {
          "internalType": "bytes32",
          "name": "_hashedMessage",
          "type": "bytes32"
        },
        {
          "internalType": "uint8",
          "name": "_v",
          "type": "uint8"
        },
        {
          "internalType": "bytes32",
          "name": "_r",
          "type": "bytes32"
        },
        {
          "internalType": "bytes32",
          "name": "_s",
          "type": "bytes32"
        }
      ],
      "name": "initGame",
      "outputs": [],
      "stateMutability": "nonpayable",
      "type": "function"
    },
    {
      "inputs": [
        {
          "internalType": "string",
          "name": "gameId",
          "type": "string"
        },
        {
          "internalType": "address",
          "name": "oponent",
          "type": "address"
        },
        {
          "internalType": "bytes32",
          "name": "_hashedMessage",
          "type": "bytes32"
        },
        {
          "internalType": "uint8",
          "name": "_v",
          "type": "uint8"
        },
        {
          "internalType": "bytes32",
          "name": "_r",
          "type": "bytes32"
        },
        {
          "internalType": "bytes32",
          "name": "_s",
          "type": "bytes32"
        }
      ],
      "name": "joinGame",
      "outputs": [],
      "stateMutability": "nonpayable",
      "type": "function"
    },
    {
      "inputs": [],
      "name": "owner",
      "outputs": [
        {
          "internalType": "address",
          "name": "",
          "type": "address"
        }
      ],
      "stateMutability": "view",
      "type": "function"
    },
    {
      "inputs": [
        {
          "internalType": "address",
          "name": "_mainWallet",
          "type": "address"
        },
        {
          "internalType": "string",
          "name": "_discord",
          "type": "string"
        },
        {
          "internalType": "address",
          "name": "_sigWallet",
          "type": "address"
        }
      ],
      "name": "register",
      "outputs": [],
      "stateMutability": "nonpayable",
      "type": "function"
    },
    {
      "inputs": [],
      "name": "renounceOwnership",
      "outputs": [],
      "stateMutability": "nonpayable",
      "type": "function"
    },
    {
      "inputs": [
        {
          "internalType": "string",
          "name": "gameId",
          "type": "string"
        },
        {
          "internalType": "bytes32",
          "name": "_hashedMessage",
          "type": "bytes32"
        },
        {
          "internalType": "uint8",
          "name": "_v",
          "type": "uint8"
        },
        {
          "internalType": "bytes32",
          "name": "_r",
          "type": "bytes32"
        },
        {
          "internalType": "bytes32",
          "name": "_s",
          "type": "bytes32"
        }
      ],
      "name": "roll",
      "outputs": [],
      "stateMutability": "nonpayable",
      "type": "function"
    },
    {
      "inputs": [
        {
          "internalType": "address",
          "name": "_airnode",
          "type": "address"
        },
        {
          "internalType": "bytes32",
          "name": "_endpointIdUint256",
          "type": "bytes32"
        },
        {
          "internalType": "address",
          "name": "_sponsorWallet",
          "type": "address"
        }
      ],
      "name": "setParameters",
      "outputs": [],
      "stateMutability": "nonpayable",
      "type": "function"
    },
    {
      "inputs": [],
      "name": "sponsorWallet",
      "outputs": [
        {
          "internalType": "address",
          "name": "",
          "type": "address"
        }
      ],
      "stateMutability": "view",
      "type": "function"
    },
    {
      "inputs": [
        {
          "internalType": "bytes32",
          "name": "_hashedMessage",
          "type": "bytes32"
        },
        {
          "internalType": "uint8",
          "name": "_v",
          "type": "uint8"
        },
        {
          "internalType": "bytes32",
          "name": "_r",
          "type": "bytes32"
        },
        {
          "internalType": "bytes32",
          "name": "_s",
          "type": "bytes32"
        }
      ],
      "name": "terminatePendingGame",
      "outputs": [],
      "stateMutability": "nonpayable",
      "type": "function"
    },
    {
      "inputs": [
        {
          "internalType": "address",
          "name": "newOwner",
          "type": "address"
        }
      ],
      "name": "transferOwnership",
      "outputs": [],
      "stateMutability": "nonpayable",
      "type": "function"
    },
    {
      "inputs": [
        {
          "internalType": "bytes32",
          "name": "_hashedMessage",
          "type": "bytes32"
        },
        {
          "internalType": "uint8",
          "name": "_v",
          "type": "uint8"
        },
        {
          "internalType": "bytes32",
          "name": "_r",
          "type": "bytes32"
        },
        {
          "internalType": "bytes32",
          "name": "_s",
          "type": "bytes32"
        }
      ],
      "name": "verifyMessage",
      "outputs": [
        {
          "internalType": "address",
          "name": "",
          "type": "address"
        }
      ],
      "stateMutability": "pure",
      "type": "function"
    },
    {
      "stateMutability": "payable",
      "type": "receive"
    }
  ],
  "bytecode": "0x60a06040523480156200001157600080fd5b5060405162003f4938038062003f4983398181016040528101906200003791906200027d565b808073ffffffffffffffffffffffffffffffffffffffff1660808173ffffffffffffffffffffffffffffffffffffffff16815250508073ffffffffffffffffffffffffffffffffffffffff1663addf027c3060016040518363ffffffff1660e01b8152600401620000aa929190620002dd565b600060405180830381600087803b158015620000c557600080fd5b505af1158015620000da573d6000803e3d6000fd5b5050505050620000ff620000f36200014760201b60201c565b6200014f60201b60201c565b33600160006101000a81548173ffffffffffffffffffffffffffffffffffffffff021916908373ffffffffffffffffffffffffffffffffffffffff160217905550506200030a565b600033905090565b60008060009054906101000a900473ffffffffffffffffffffffffffffffffffffffff169050816000806101000a81548173ffffffffffffffffffffffffffffffffffffffff021916908373ffffffffffffffffffffffffffffffffffffffff1602179055508173ffffffffffffffffffffffffffffffffffffffff168173ffffffffffffffffffffffffffffffffffffffff167f8be0079c531659141344cd1fd0a4f28419497f9722a3daafe3b4186f6b6457e060405160405180910390a35050565b600080fd5b600073ffffffffffffffffffffffffffffffffffffffff82169050919050565b6000620002458262000218565b9050919050565b620002578162000238565b81146200026357600080fd5b50565b60008151905062000277816200024c565b92915050565b60006020828403121562000296576200029562000213565b5b6000620002a68482850162000266565b91505092915050565b620002ba8162000238565b82525050565b60008115159050919050565b620002d781620002c0565b82525050565b6000604082019050620002f46000830185620002af565b620003036020830184620002cc565b9392505050565b608051613c15620003346000396000818161051001528181610c0701526124120152613c156000f3fe6080604052600436106101185760003560e01c806381dd33b5116100a0578063a36ff4d811610064578063a36ff4d81461040d578063bf90fb4e14610438578063d3cf32df14610463578063e63ba956146104a0578063f2fde38b146104c9576101b9565b806381dd33b514610316578063851244f7146103535780638da5cb5b1461039057806393e5347b146103bb57806397294e58146103e4576101b9565b80636ec3c393116100e75780636ec3c39314610257578063715018a61461028257806371bab6661461029957806376a68263146102c457806379b1d0d7146102ed576101b9565b806307b9fc57146101be5780633718d90a146101e95780636548b40d14610212578063661ddef01461022e576101b9565b366101b9576000610128346104f2565b905080600b60003373ffffffffffffffffffffffffffffffffffffffff1673ffffffffffffffffffffffffffffffffffffffff1681526020019081526020016000205461017591906125f6565b600b60003373ffffffffffffffffffffffffffffffffffffffff1673ffffffffffffffffffffffffffffffffffffffff168152602001908152602001600020819055005b600080fd5b3480156101ca57600080fd5b506101d3610508565b6040516101e09190612643565b60405180910390f35b3480156101f557600080fd5b50610210600480360381019061020b9190612703565b61050e565b005b61022c600480360381019061022791906127ed565b610648565b005b34801561023a57600080fd5b5061025560048036038101906102509190612866565b61076f565b005b34801561026357600080fd5b5061026c610b77565b60405161027991906128f0565b60405180910390f35b34801561028e57600080fd5b50610297610b7d565b005b3480156102a557600080fd5b506102ae610c05565b6040516102bb919061296a565b60405180910390f35b3480156102d057600080fd5b506102eb60048036038101906102e69190612985565b610c29565b005b3480156102f957600080fd5b50610314600480360381019061030f9190612b19565b610d33565b005b34801561032257600080fd5b5061033d60048036038101906103389190612bc2565b6112b1565b60405161034a9190612cca565b60405180910390f35b34801561035f57600080fd5b5061037a60048036038101906103759190612ce6565b611450565b6040516103879190612d22565b60405180910390f35b34801561039c57600080fd5b506103a5611470565b6040516103b29190612d4c565b60405180910390f35b3480156103c757600080fd5b506103e260048036038101906103dd9190612d67565b611499565b005b3480156103f057600080fd5b5061040b60048036038101906104069190612dfe565b611b01565b005b34801561041957600080fd5b50610422611d1d565b60405161042f9190612d4c565b60405180910390f35b34801561044457600080fd5b5061044d611d43565b60405161045a9190612d4c565b60405180910390f35b34801561046f57600080fd5b5061048a60048036038101906104859190612e6d565b611d69565b6040516104979190612d4c565b60405180910390f35b3480156104ac57600080fd5b506104c760048036038101906104c29190612e6d565b611e32565b005b3480156104d557600080fd5b506104f060048036038101906104eb9190612bc2565b6121b8565b005b60006009826105019190612f03565b9050919050565b60045481565b7f000000000000000000000000000000000000000000000000000000000000000073ffffffffffffffffffffffffffffffffffffffff163373ffffffffffffffffffffffffffffffffffffffff161461059c576040517f08c379a000000000000000000000000000000000000000000000000000000000815260040161059390612f91565b60405180910390fd5b6008600084815260200190815260200160002060009054906101000a900460ff166105fc576040517f08c379a00000000000000000000000000000000000000000000000000000000081526004016105f390612ffd565b60405180910390fd5b60006008600085815260200190815260200160002060006101000a81548160ff02191690831515021790555060008282810190610639919061301d565b90508060078190555050505050565b60008290508073ffffffffffffffffffffffffffffffffffffffff166323b872dd3330856040518463ffffffff1660e01b815260040161068a9392919061304a565b6020604051808303816000875af11580156106a9573d6000803e3d6000fd5b505050506040513d601f19601f820116820180604052508101906106cd91906130ad565b5060006106d9836104f2565b905080600b60003373ffffffffffffffffffffffffffffffffffffffff1673ffffffffffffffffffffffffffffffffffffffff1681526020019081526020016000205461072691906125f6565b600b60003373ffffffffffffffffffffffffffffffffffffffff1673ffffffffffffffffffffffffffffffffffffffff1681526020019081526020016000208190555050505050565b600061077d85858585611d69565b905060006107896122af565b905081816000019073ffffffffffffffffffffffffffffffffffffffff16908173ffffffffffffffffffffffffffffffffffffffff1681525050868160800181815250506000600960008473ffffffffffffffffffffffffffffffffffffffff1673ffffffffffffffffffffffffffffffffffffffff168152602001908152602001600020604051806101000160405290816000820160009054906101000a900473ffffffffffffffffffffffffffffffffffffffff1673ffffffffffffffffffffffffffffffffffffffff1673ffffffffffffffffffffffffffffffffffffffff1681526020016001820160009054906101000a900473ffffffffffffffffffffffffffffffffffffffff1673ffffffffffffffffffffffffffffffffffffffff1673ffffffffffffffffffffffffffffffffffffffff1681526020016002820154815260200160038201548152602001600482015481526020016005820160009054906101000a900460ff16151515158152602001600682015481526020016007820160009054906101000a900473ffffffffffffffffffffffffffffffffffffffff1673ffffffffffffffffffffffffffffffffffffffff1673ffffffffffffffffffffffffffffffffffffffff16815250509050600073ffffffffffffffffffffffffffffffffffffffff16816000015173ffffffffffffffffffffffffffffffffffffffff16146109d4576040517f08c379a00000000000000000000000000000000000000000000000000000000081526004016109cb90613126565b60405180910390fd5b81600960008573ffffffffffffffffffffffffffffffffffffffff1673ffffffffffffffffffffffffffffffffffffffff16815260200190815260200160002060008201518160000160006101000a81548173ffffffffffffffffffffffffffffffffffffffff021916908373ffffffffffffffffffffffffffffffffffffffff16021790555060208201518160010160006101000a81548173ffffffffffffffffffffffffffffffffffffffff021916908373ffffffffffffffffffffffffffffffffffffffff16021790555060408201518160020155606082015181600301556080820151816004015560a08201518160050160006101000a81548160ff02191690831515021790555060c0820151816006015560e08201518160070160006101000a81548173ffffffffffffffffffffffffffffffffffffffff021916908373ffffffffffffffffffffffffffffffffffffffff1602179055509050507fc3e0f84839dc888c892a013d10c8f9d6dc05a21a879d0ce468ca558013e9121c8884604051610b65929190613146565b60405180910390a15050505050505050565b60065481565b610b85612342565b73ffffffffffffffffffffffffffffffffffffffff16610ba3611470565b73ffffffffffffffffffffffffffffffffffffffff1614610bf9576040517f08c379a0000000000000000000000000000000000000000000000000000000008152600401610bf0906131bb565b60405180910390fd5b610c03600061234a565b565b7f000000000000000000000000000000000000000000000000000000000000000081565b610c31612342565b73ffffffffffffffffffffffffffffffffffffffff16610c4f611470565b73ffffffffffffffffffffffffffffffffffffffff1614610ca5576040517f08c379a0000000000000000000000000000000000000000000000000000000008152600401610c9c906131bb565b60405180910390fd5b82600360006101000a81548173ffffffffffffffffffffffffffffffffffffffff021916908373ffffffffffffffffffffffffffffffffffffffff1602179055508160048190555080600560006101000a81548173ffffffffffffffffffffffffffffffffffffffff021916908373ffffffffffffffffffffffffffffffffffffffff160217905550505050565b6000610d4185858585611d69565b90506000600960008873ffffffffffffffffffffffffffffffffffffffff1673ffffffffffffffffffffffffffffffffffffffff168152602001908152602001600020604051806101000160405290816000820160009054906101000a900473ffffffffffffffffffffffffffffffffffffffff1673ffffffffffffffffffffffffffffffffffffffff1673ffffffffffffffffffffffffffffffffffffffff1681526020016001820160009054906101000a900473ffffffffffffffffffffffffffffffffffffffff1673ffffffffffffffffffffffffffffffffffffffff1673ffffffffffffffffffffffffffffffffffffffff1681526020016002820154815260200160038201548152602001600482015481526020016005820160009054906101000a900460ff16151515158152602001600682015481526020016007820160009054906101000a900473ffffffffffffffffffffffffffffffffffffffff1673ffffffffffffffffffffffffffffffffffffffff1673ffffffffffffffffffffffffffffffffffffffff16815250509050600073ffffffffffffffffffffffffffffffffffffffff16816000015173ffffffffffffffffffffffffffffffffffffffff1603610f4a576040517f08c379a0000000000000000000000000000000000000000000000000000000008152600401610f4190613227565b60405180910390fd5b81816020019073ffffffffffffffffffffffffffffffffffffffff16908173ffffffffffffffffffffffffffffffffffffffff1681525050610f8a6122af565b600960008973ffffffffffffffffffffffffffffffffffffffff1673ffffffffffffffffffffffffffffffffffffffff16815260200190815260200160002060008201518160000160006101000a81548173ffffffffffffffffffffffffffffffffffffffff021916908373ffffffffffffffffffffffffffffffffffffffff16021790555060208201518160010160006101000a81548173ffffffffffffffffffffffffffffffffffffffff021916908373ffffffffffffffffffffffffffffffffffffffff16021790555060408201518160020155606082015181600301556080820151816004015560a08201518160050160006101000a81548160ff02191690831515021790555060c0820151816006015560e08201518160070160006101000a81548173ffffffffffffffffffffffffffffffffffffffff021916908373ffffffffffffffffffffffffffffffffffffffff16021790555090505080600a896040516110fa91906132b8565b908152602001604051809103902060008201518160000160006101000a81548173ffffffffffffffffffffffffffffffffffffffff021916908373ffffffffffffffffffffffffffffffffffffffff16021790555060208201518160010160006101000a81548173ffffffffffffffffffffffffffffffffffffffff021916908373ffffffffffffffffffffffffffffffffffffffff16021790555060408201518160020155606082015181600301556080820151816004015560a08201518160050160006101000a81548160ff02191690831515021790555060c0820151816006015560e08201518160070160006101000a81548173ffffffffffffffffffffffffffffffffffffffff021916908373ffffffffffffffffffffffffffffffffffffffff1602179055509050507f12d9f0c2e5a1e92bff5db4da82d114883e0209cee589acea31f73786e7b1690888600960008a73ffffffffffffffffffffffffffffffffffffffff1673ffffffffffffffffffffffffffffffffffffffff16815260200190815260200160002060040154848a60405161129f9493929190613308565b60405180910390a15050505050505050565b6112b9612534565b600960008373ffffffffffffffffffffffffffffffffffffffff1673ffffffffffffffffffffffffffffffffffffffff168152602001908152602001600020604051806101000160405290816000820160009054906101000a900473ffffffffffffffffffffffffffffffffffffffff1673ffffffffffffffffffffffffffffffffffffffff1673ffffffffffffffffffffffffffffffffffffffff1681526020016001820160009054906101000a900473ffffffffffffffffffffffffffffffffffffffff1673ffffffffffffffffffffffffffffffffffffffff1673ffffffffffffffffffffffffffffffffffffffff1681526020016002820154815260200160038201548152602001600482015481526020016005820160009054906101000a900460ff16151515158152602001600682015481526020016007820160009054906101000a900473ffffffffffffffffffffffffffffffffffffffff1673ffffffffffffffffffffffffffffffffffffffff1673ffffffffffffffffffffffffffffffffffffffff16815250509050919050565b60086020528060005260406000206000915054906101000a900460ff1681565b60008060009054906101000a900473ffffffffffffffffffffffffffffffffffffffff16905090565b60006114a785858585611d69565b90506000600a876040516114bb91906132b8565b9081526020016040518091039020604051806101000160405290816000820160009054906101000a900473ffffffffffffffffffffffffffffffffffffffff1673ffffffffffffffffffffffffffffffffffffffff1673ffffffffffffffffffffffffffffffffffffffff1681526020016001820160009054906101000a900473ffffffffffffffffffffffffffffffffffffffff1673ffffffffffffffffffffffffffffffffffffffff1673ffffffffffffffffffffffffffffffffffffffff1681526020016002820154815260200160038201548152602001600482015481526020016005820160009054906101000a900460ff16151515158152602001600682015481526020016007820160009054906101000a900473ffffffffffffffffffffffffffffffffffffffff1673ffffffffffffffffffffffffffffffffffffffff1673ffffffffffffffffffffffffffffffffffffffff16815250509050600073ffffffffffffffffffffffffffffffffffffffff168160e0015173ffffffffffffffffffffffffffffffffffffffff161461168f576040517f08c379a0000000000000000000000000000000000000000000000000000000008152600401611686906133a0565b60405180910390fd5b600073ffffffffffffffffffffffffffffffffffffffff16816000015173ffffffffffffffffffffffffffffffffffffffff16141580156117015750600073ffffffffffffffffffffffffffffffffffffffff16816020015173ffffffffffffffffffffffffffffffffffffffff1614155b611740576040517f08c379a00000000000000000000000000000000000000000000000000000000081526004016117379061340c565b60405180910390fd5b8060a00151156117fb57806020015173ffffffffffffffffffffffffffffffffffffffff168273ffffffffffffffffffffffffffffffffffffffff16146117bc576040517f08c379a00000000000000000000000000000000000000000000000000000000081526004016117b390613478565b60405180910390fd5b6000600a886040516117ce91906132b8565b908152602001604051809103902060050160006101000a81548160ff0219169083151502179055506118a8565b806000015173ffffffffffffffffffffffffffffffffffffffff168273ffffffffffffffffffffffffffffffffffffffff161461186d576040517f08c379a000000000000000000000000000000000000000000000000000000000815260040161186490613478565b60405180910390fd5b6001600a8860405161187f91906132b8565b908152602001604051809103902060050160006101000a81548160ff0219169083151502179055505b6118b061240e565b6000808260600151146118c75781606001516118ca565b60645b905060006001826007546118de9190613498565b6118e891906125f6565b905080600a8a6040516118fb91906132b8565b9081526020016040518091039020600301819055506001600a8a60405161192291906132b8565b9081526020016040518091039020600601600082825461194291906125f6565b9250508190555060018103611abb5783600a8a60405161196291906132b8565b908152602001604051809103902060070160006101000a81548173ffffffffffffffffffffffffffffffffffffffff021916908373ffffffffffffffffffffffffffffffffffffffff1602179055507f4a8abc7cbccfce0b636ee9c6fae32c8c7fbf234ed8aafa534ebab2ee4ddc6fbe8985600a8c6040516119e491906132b8565b908152602001604051809103902060050160009054906101000a900460ff16611a4e57600a8c604051611a1791906132b8565b908152602001604051809103902060010160009054906101000a900473ffffffffffffffffffffffffffffffffffffffff16611a91565b600a8c604051611a5e91906132b8565b908152602001604051809103902060000160009054906101000a900473ffffffffffffffffffffffffffffffffffffffff165b60028760800151611aa291906134c9565b604051611ab2949392919061350b565b60405180910390a15b7fdd42890214d893c0e99a85ab879fdc86f67bd82bf899e8851d5592f4d5514d1c898583604051611aee93929190613557565b60405180910390a1505050505050505050565b611b09612342565b73ffffffffffffffffffffffffffffffffffffffff16611b27611470565b73ffffffffffffffffffffffffffffffffffffffff1614611b7d576040517f08c379a0000000000000000000000000000000000000000000000000000000008152600401611b74906131bb565b60405180910390fd5b600073ffffffffffffffffffffffffffffffffffffffff16600260008573ffffffffffffffffffffffffffffffffffffffff1673ffffffffffffffffffffffffffffffffffffffff16815260200190815260200160002060010160009054906101000a900473ffffffffffffffffffffffffffffffffffffffff1673ffffffffffffffffffffffffffffffffffffffff1614611c4e576040517f08c379a0000000000000000000000000000000000000000000000000000000008152600401611c45906135e1565b60405180910390fd5b60405180604001604052808381526020018273ffffffffffffffffffffffffffffffffffffffff16815250600260008573ffffffffffffffffffffffffffffffffffffffff1673ffffffffffffffffffffffffffffffffffffffff1681526020019081526020016000206000820151816000019081611ccd9190613803565b5060208201518160010160006101000a81548173ffffffffffffffffffffffffffffffffffffffff021916908373ffffffffffffffffffffffffffffffffffffffff160217905550905050505050565b600360009054906101000a900473ffffffffffffffffffffffffffffffffffffffff1681565b600560009054906101000a900473ffffffffffffffffffffffffffffffffffffffff1681565b6000806040518060400160405280601c81526020017f19457468657265756d205369676e6564204d6573736167653a0a333200000000815250905060008187604051602001611db992919061393d565b604051602081830303815290604052805190602001209050600060018288888860405160008152602001604052604051611df69493929190613974565b6020604051602081039080840390855afa158015611e18573d6000803e3d6000fd5b505050602060405103519050809350505050949350505050565b6000611e4085858585611d69565b90506000600960008373ffffffffffffffffffffffffffffffffffffffff1673ffffffffffffffffffffffffffffffffffffffff168152602001908152602001600020604051806101000160405290816000820160009054906101000a900473ffffffffffffffffffffffffffffffffffffffff1673ffffffffffffffffffffffffffffffffffffffff1673ffffffffffffffffffffffffffffffffffffffff1681526020016001820160009054906101000a900473ffffffffffffffffffffffffffffffffffffffff1673ffffffffffffffffffffffffffffffffffffffff1673ffffffffffffffffffffffffffffffffffffffff1681526020016002820154815260200160038201548152602001600482015481526020016005820160009054906101000a900460ff16151515158152602001600682015481526020016007820160009054906101000a900473ffffffffffffffffffffffffffffffffffffffff1673ffffffffffffffffffffffffffffffffffffffff1673ffffffffffffffffffffffffffffffffffffffff16815250509050600073ffffffffffffffffffffffffffffffffffffffff16816000015173ffffffffffffffffffffffffffffffffffffffff1603612049576040517f08c379a000000000000000000000000000000000000000000000000000000000815260040161204090613a05565b60405180910390fd5b6120516122af565b600960008473ffffffffffffffffffffffffffffffffffffffff1673ffffffffffffffffffffffffffffffffffffffff16815260200190815260200160002060008201518160000160006101000a81548173ffffffffffffffffffffffffffffffffffffffff021916908373ffffffffffffffffffffffffffffffffffffffff16021790555060208201518160010160006101000a81548173ffffffffffffffffffffffffffffffffffffffff021916908373ffffffffffffffffffffffffffffffffffffffff16021790555060408201518160020155606082015181600301556080820151816004015560a08201518160050160006101000a81548160ff02191690831515021790555060c0820151816006015560e08201518160070160006101000a81548173ffffffffffffffffffffffffffffffffffffffff021916908373ffffffffffffffffffffffffffffffffffffffff160217905550905050505050505050565b6121c0612342565b73ffffffffffffffffffffffffffffffffffffffff166121de611470565b73ffffffffffffffffffffffffffffffffffffffff1614612234576040517f08c379a000000000000000000000000000000000000000000000000000000000815260040161222b906131bb565b60405180910390fd5b600073ffffffffffffffffffffffffffffffffffffffff168173ffffffffffffffffffffffffffffffffffffffff16036122a3576040517f08c379a000000000000000000000000000000000000000000000000000000000815260040161229a90613a97565b60405180910390fd5b6122ac8161234a565b50565b6122b7612534565b604051806101000160405280600073ffffffffffffffffffffffffffffffffffffffff168152602001600073ffffffffffffffffffffffffffffffffffffffff16815260200160008152602001600081526020016000815260200160001515815260200160008152602001600073ffffffffffffffffffffffffffffffffffffffff16815250905090565b600033905090565b60008060009054906101000a900473ffffffffffffffffffffffffffffffffffffffff169050816000806101000a81548173ffffffffffffffffffffffffffffffffffffffff021916908373ffffffffffffffffffffffffffffffffffffffff1602179055508173ffffffffffffffffffffffffffffffffffffffff168173ffffffffffffffffffffffffffffffffffffffff167f8be0079c531659141344cd1fd0a4f28419497f9722a3daafe3b4186f6b6457e060405160405180910390a35050565b60007f000000000000000000000000000000000000000000000000000000000000000073ffffffffffffffffffffffffffffffffffffffff16636e6be03f600360009054906101000a900473ffffffffffffffffffffffffffffffffffffffff1660045430600560009054906101000a900473ffffffffffffffffffffffffffffffffffffffff1630633718d90a60e01b6040518763ffffffff1660e01b81526004016124c096959493929190613b29565b6020604051808303816000875af11580156124df573d6000803e3d6000fd5b505050506040513d601f19601f820116820180604052508101906125039190613bb2565b905060016008600083815260200190815260200160002060006101000a81548160ff02191690831515021790555050565b604051806101000160405280600073ffffffffffffffffffffffffffffffffffffffff168152602001600073ffffffffffffffffffffffffffffffffffffffff16815260200160008152602001600081526020016000815260200160001515815260200160008152602001600073ffffffffffffffffffffffffffffffffffffffff1681525090565b6000819050919050565b7f4e487b7100000000000000000000000000000000000000000000000000000000600052601160045260246000fd5b6000612601826125bd565b915061260c836125bd565b9250828201905080821115612624576126236125c7565b5b92915050565b6000819050919050565b61263d8161262a565b82525050565b60006020820190506126586000830184612634565b92915050565b6000604051905090565b600080fd5b600080fd5b61267b8161262a565b811461268657600080fd5b50565b60008135905061269881612672565b92915050565b600080fd5b600080fd5b600080fd5b60008083601f8401126126c3576126c261269e565b5b8235905067ffffffffffffffff8111156126e0576126df6126a3565b5b6020830191508360018202830111156126fc576126fb6126a8565b5b9250929050565b60008060006040848603121561271c5761271b612668565b5b600061272a86828701612689565b935050602084013567ffffffffffffffff81111561274b5761274a61266d565b5b612757868287016126ad565b92509250509250925092565b600073ffffffffffffffffffffffffffffffffffffffff82169050919050565b600061278e82612763565b9050919050565b61279e81612783565b81146127a957600080fd5b50565b6000813590506127bb81612795565b92915050565b6127ca816125bd565b81146127d557600080fd5b50565b6000813590506127e7816127c1565b92915050565b6000806040838503121561280457612803612668565b5b6000612812858286016127ac565b9250506020612823858286016127d8565b9150509250929050565b600060ff82169050919050565b6128438161282d565b811461284e57600080fd5b50565b6000813590506128608161283a565b92915050565b600080600080600060a0868803121561288257612881612668565b5b6000612890888289016127d8565b95505060206128a188828901612689565b94505060406128b288828901612851565b93505060606128c388828901612689565b92505060806128d488828901612689565b9150509295509295909350565b6128ea816125bd565b82525050565b600060208201905061290560008301846128e1565b92915050565b6000819050919050565b600061293061292b61292684612763565b61290b565b612763565b9050919050565b600061294282612915565b9050919050565b600061295482612937565b9050919050565b61296481612949565b82525050565b600060208201905061297f600083018461295b565b92915050565b60008060006060848603121561299e5761299d612668565b5b60006129ac868287016127ac565b93505060206129bd86828701612689565b92505060406129ce868287016127ac565b9150509250925092565b600080fd5b6000601f19601f8301169050919050565b7f4e487b7100000000000000000000000000000000000000000000000000000000600052604160045260246000fd5b612a26826129dd565b810181811067ffffffffffffffff82111715612a4557612a446129ee565b5b80604052505050565b6000612a5861265e565b9050612a648282612a1d565b919050565b600067ffffffffffffffff821115612a8457612a836129ee565b5b612a8d826129dd565b9050602081019050919050565b82818337600083830152505050565b6000612abc612ab784612a69565b612a4e565b905082815260208101848484011115612ad857612ad76129d8565b5b612ae3848285612a9a565b509392505050565b600082601f830112612b0057612aff61269e565b5b8135612b10848260208601612aa9565b91505092915050565b60008060008060008060c08789031215612b3657612b35612668565b5b600087013567ffffffffffffffff811115612b5457612b5361266d565b5b612b6089828a01612aeb565b9650506020612b7189828a016127ac565b9550506040612b8289828a01612689565b9450506060612b9389828a01612851565b9350506080612ba489828a01612689565b92505060a0612bb589828a01612689565b9150509295509295509295565b600060208284031215612bd857612bd7612668565b5b6000612be6848285016127ac565b91505092915050565b612bf881612783565b82525050565b612c07816125bd565b82525050565b60008115159050919050565b612c2281612c0d565b82525050565b61010082016000820151612c3f6000850182612bef565b506020820151612c526020850182612bef565b506040820151612c656040850182612bfe565b506060820151612c786060850182612bfe565b506080820151612c8b6080850182612bfe565b5060a0820151612c9e60a0850182612c19565b5060c0820151612cb160c0850182612bfe565b5060e0820151612cc460e0850182612bef565b50505050565b600061010082019050612ce06000830184612c28565b92915050565b600060208284031215612cfc57612cfb612668565b5b6000612d0a84828501612689565b91505092915050565b612d1c81612c0d565b82525050565b6000602082019050612d376000830184612d13565b92915050565b612d4681612783565b82525050565b6000602082019050612d616000830184612d3d565b92915050565b600080600080600060a08688031215612d8357612d82612668565b5b600086013567ffffffffffffffff811115612da157612da061266d565b5b612dad88828901612aeb565b9550506020612dbe88828901612689565b9450506040612dcf88828901612851565b9350506060612de088828901612689565b9250506080612df188828901612689565b9150509295509295909350565b600080600060608486031215612e1757612e16612668565b5b6000612e25868287016127ac565b935050602084013567ffffffffffffffff811115612e4657612e4561266d565b5b612e5286828701612aeb565b9250506040612e63868287016127ac565b9150509250925092565b60008060008060808587031215612e8757612e86612668565b5b6000612e9587828801612689565b9450506020612ea687828801612851565b9350506040612eb787828801612689565b9250506060612ec887828801612689565b91505092959194509250565b7f4e487b7100000000000000000000000000000000000000000000000000000000600052601260045260246000fd5b6000612f0e826125bd565b9150612f19836125bd565b925082612f2957612f28612ed4565b5b828204905092915050565b600082825260208201905092915050565b7f43616c6c6572206e6f74204169726e6f64652052525000000000000000000000600082015250565b6000612f7b601683612f34565b9150612f8682612f45565b602082019050919050565b60006020820190508181036000830152612faa81612f6e565b9050919050565b7f52657175657374204944206e6f74206b6e6f776e000000000000000000000000600082015250565b6000612fe7601483612f34565b9150612ff282612fb1565b602082019050919050565b6000602082019050818103600083015261301681612fda565b9050919050565b60006020828403121561303357613032612668565b5b6000613041848285016127d8565b91505092915050565b600060608201905061305f6000830186612d3d565b61306c6020830185612d3d565b61307960408301846128e1565b949350505050565b61308a81612c0d565b811461309557600080fd5b50565b6000815190506130a781613081565b92915050565b6000602082840312156130c3576130c2612668565b5b60006130d184828501613098565b91505092915050565b7f596f7520616c726561647920686176652070656e64696e672067616d65210000600082015250565b6000613110601e83612f34565b915061311b826130da565b602082019050919050565b6000602082019050818103600083015261313f81613103565b9050919050565b600060408201905061315b60008301856128e1565b6131686020830184612d3d565b9392505050565b7f4f776e61626c653a2063616c6c6572206973206e6f7420746865206f776e6572600082015250565b60006131a5602083612f34565b91506131b08261316f565b602082019050919050565b600060208201905081810360008301526131d481613198565b9050919050565b7f436f756c64206e6f742066696e642070656e64696e672067616d652100000000600082015250565b6000613211601c83612f34565b915061321c826131db565b602082019050919050565b6000602082019050818103600083015261324081613204565b9050919050565b600081519050919050565b600081905092915050565b60005b8381101561327b578082015181840152602081019050613260565b60008484015250505050565b600061329282613247565b61329c8185613252565b93506132ac81856020860161325d565b80840191505092915050565b60006132c48284613287565b915081905092915050565b60006132da82613247565b6132e48185612f34565b93506132f481856020860161325d565b6132fd816129dd565b840191505092915050565b6000608082019050818103600083015261332281876132cf565b905061333160208301866128e1565b61333e6040830185612d3d565b61334b6060830184612d3d565b95945050505050565b7f47616d6520616c7265616479207265736f6c7665640000000000000000000000600082015250565b600061338a601583612f34565b915061339582613354565b602082019050919050565b600060208201905081810360008301526133b98161337d565b9050919050565b7f496e76616c69642067616d6520636f6e66696721000000000000000000000000600082015250565b60006133f6601483612f34565b9150613401826133c0565b602082019050919050565b60006020820190508181036000830152613425816133e9565b9050919050565b7f43616e277420726f6c6c20747769636520696e20726f77000000000000000000600082015250565b6000613462601783612f34565b915061346d8261342c565b602082019050919050565b6000602082019050818103600083015261349181613455565b9050919050565b60006134a3826125bd565b91506134ae836125bd565b9250826134be576134bd612ed4565b5b828206905092915050565b60006134d4826125bd565b91506134df836125bd565b92508282026134ed816125bd565b91508282048414831517613504576135036125c7565b5b5092915050565b6000608082019050818103600083015261352581876132cf565b90506135346020830186612d3d565b6135416040830185612d3d565b61354e60608301846128e1565b95945050505050565b6000606082019050818103600083015261357181866132cf565b90506135806020830185612d3d565b61358d60408301846128e1565b949350505050565b7f506c6179657220616c7265616479207265676973746572656400000000000000600082015250565b60006135cb601983612f34565b91506135d682613595565b602082019050919050565b600060208201905081810360008301526135fa816135be565b9050919050565b7f4e487b7100000000000000000000000000000000000000000000000000000000600052602260045260246000fd5b6000600282049050600182168061364857607f821691505b60208210810361365b5761365a613601565b5b50919050565b60008190508160005260206000209050919050565b60006020601f8301049050919050565b600082821b905092915050565b6000600883026136c37fffffffffffffffffffffffffffffffffffffffffffffffffffffffffffffffff82613686565b6136cd8683613686565b95508019841693508086168417925050509392505050565b60006137006136fb6136f6846125bd565b61290b565b6125bd565b9050919050565b6000819050919050565b61371a836136e5565b61372e61372682613707565b848454613693565b825550505050565b600090565b613743613736565b61374e818484613711565b505050565b5b818110156137725761376760008261373b565b600181019050613754565b5050565b601f8211156137b75761378881613661565b61379184613676565b810160208510156137a0578190505b6137b46137ac85613676565b830182613753565b50505b505050565b600082821c905092915050565b60006137da600019846008026137bc565b1980831691505092915050565b60006137f383836137c9565b9150826002028217905092915050565b61380c82613247565b67ffffffffffffffff811115613825576138246129ee565b5b61382f8254613630565b61383a828285613776565b600060209050601f83116001811461386d576000841561385b578287015190505b61386585826137e7565b8655506138cd565b601f19841661387b86613661565b60005b828110156138a35784890151825560018201915060208501945060208101905061387e565b868310156138c057848901516138bc601f8916826137c9565b8355505b6001600288020188555050505b505050505050565b600081519050919050565b600081905092915050565b60006138f6826138d5565b61390081856138e0565b935061391081856020860161325d565b80840191505092915050565b6000819050919050565b6139376139328261262a565b61391c565b82525050565b600061394982856138eb565b91506139558284613926565b6020820191508190509392505050565b61396e8161282d565b82525050565b60006080820190506139896000830187612634565b6139966020830186613965565b6139a36040830185612634565b6139b06060830184612634565b95945050505050565b7f436f756c64206e6f742066696e642070656e64696e672067616d650000000000600082015250565b60006139ef601b83612f34565b91506139fa826139b9565b602082019050919050565b60006020820190508181036000830152613a1e816139e2565b9050919050565b7f4f776e61626c653a206e6577206f776e657220697320746865207a65726f206160008201527f6464726573730000000000000000000000000000000000000000000000000000602082015250565b6000613a81602683612f34565b9150613a8c82613a25565b604082019050919050565b60006020820190508181036000830152613ab081613a74565b9050919050565b60007fffffffff0000000000000000000000000000000000000000000000000000000082169050919050565b613aec81613ab7565b82525050565b600082825260208201905092915050565b50565b6000613b13600083613af2565b9150613b1e82613b03565b600082019050919050565b600060e082019050613b3e6000830189612d3d565b613b4b6020830188612634565b613b586040830187612d3d565b613b656060830186612d3d565b613b726080830185612d3d565b613b7f60a0830184613ae3565b81810360c0830152613b9081613b06565b9050979650505050505050565b600081519050613bac81612672565b92915050565b600060208284031215613bc857613bc7612668565b5b6000613bd684828501613b9d565b9150509291505056fea26469706673582212203e0b624096aa47d79f636914d096ea4aa53d7bbccc824859db8be333568db24264736f6c63430008130033",
  "linkReferences": {},
  "deployedLinkReferences": {}
}